{
  "contractName": "election",
  "abi": [
    {
      "inputs": [],
      "stateMutability": "nonpayable",
      "type": "constructor"
    },
    {
      "inputs": [],
      "name": "counter",
      "outputs": [
        {
          "internalType": "uint8",
          "name": "",
          "type": "uint8"
        }
      ],
      "stateMutability": "view",
      "type": "function",
      "constant": true
    },
    {
      "inputs": [],
      "name": "ownerAdr",
      "outputs": [
        {
          "internalType": "address",
          "name": "",
          "type": "address"
        }
      ],
      "stateMutability": "view",
      "type": "function",
      "constant": true
    },
    {
      "inputs": [],
      "name": "step",
      "outputs": [
        {
          "internalType": "enum election.electionSteps",
          "name": "",
          "type": "uint8"
        }
      ],
      "stateMutability": "view",
      "type": "function",
      "constant": true
    },
    {
      "inputs": [
        {
          "internalType": "uint256",
          "name": "_num",
          "type": "uint256"
        }
      ],
      "name": "ChangeStep",
      "outputs": [],
      "stateMutability": "nonpayable",
      "type": "function"
    },
    {
      "inputs": [
        {
          "internalType": "string",
          "name": "_name",
          "type": "string"
        }
      ],
      "name": "RegisterCandidate",
      "outputs": [],
      "stateMutability": "nonpayable",
      "type": "function"
    },
    {
      "inputs": [
        {
          "internalType": "string",
          "name": "_name",
          "type": "string"
        },
        {
          "internalType": "uint8",
          "name": "_candidateId",
          "type": "uint8"
        }
      ],
      "name": "Vote",
      "outputs": [],
      "stateMutability": "nonpayable",
      "type": "function"
    },
    {
      "inputs": [],
      "name": "GetWinner",
      "outputs": [
        {
          "internalType": "string",
          "name": "",
          "type": "string"
        },
        {
          "internalType": "uint8",
          "name": "",
          "type": "uint8"
        }
      ],
      "stateMutability": "view",
      "type": "function",
      "constant": true
    }
  ],
  "bytecode": "0x608060405234801561001057600080fd5b50336000806101000a81548173ffffffffffffffffffffffffffffffffffffffff021916908373ffffffffffffffffffffffffffffffffffffffff16021790555060008060156101000a81548160ff0219169083600281111561007657610075610080565b5b02179055506100af565b7f4e487b7100000000000000000000000000000000000000000000000000000000600052602160045260246000fd5b6110e3806100be6000396000f3fe608060405234801561001057600080fd5b506004361061007d5760003560e01c80639f6c4e6c1161005b5780639f6c4e6c146100d8578063bc53bb3c146100f7578063e25fe17514610115578063f6203aeb146101335761007d565b806303f968881461008257806361bc221a1461009e578063773aae59146100bc575b600080fd5b61009c60048036038101906100979190610b4b565b61014f565b005b6100a661034c565b6040516100b39190610bb0565b60405180910390f35b6100d660048036038101906100d19190610c01565b61035f565b005b6100e061049a565b6040516100ee929190610cb6565b60405180910390f35b6100ff610710565b60405161010c9190610d27565b60405180910390f35b61011d610734565b60405161012a9190610db9565b60405180910390f35b61014d60048036038101906101489190610e00565b610747565b005b60008054906101000a900473ffffffffffffffffffffffffffffffffffffffff1673ffffffffffffffffffffffffffffffffffffffff163373ffffffffffffffffffffffffffffffffffffffff16146101dd576040517f08c379a00000000000000000000000000000000000000000000000000000000081526004016101d490610ece565b60405180910390fd5b60008060159054906101000a900460ff166002811115610200576101ff610d42565b5b81600281111561021357610212610d42565b5b14610253576040517f08c379a000000000000000000000000000000000000000000000000000000000815260040161024a90610f3a565b60405180910390fd5b60016040518060600160405280848152602001600060149054906101000a900460ff1660ff168152602001600060ff16815250908060018154018082558091505060019003906000526020600020906002020160009091909190915060008201518160000190805190602001906102cb92919061094e565b5060208201518160010160006101000a81548160ff021916908360ff16021790555060408201518160010160016101000a81548160ff021916908360ff16021790555050506000601481819054906101000a900460ff168092919061032f90610f89565b91906101000a81548160ff021916908360ff160217905550505050565b600060149054906101000a900460ff1681565b60008054906101000a900473ffffffffffffffffffffffffffffffffffffffff1673ffffffffffffffffffffffffffffffffffffffff163373ffffffffffffffffffffffffffffffffffffffff16146103ed576040517f08c379a00000000000000000000000000000000000000000000000000000000081526004016103e490610ece565b60405180910390fd5b600081036104245760008060156101000a81548160ff0219169083600281111561041a57610419610d42565b5b0217905550610497565b6001810361045c576001600060156101000a81548160ff0219169083600281111561045257610451610d42565b5b0217905550610496565b60028103610494576002600060156101000a81548160ff0219169083600281111561048a57610489610d42565b5b0217905550610495565b5b5b5b50565b606060008060009054906101000a900473ffffffffffffffffffffffffffffffffffffffff1673ffffffffffffffffffffffffffffffffffffffff163373ffffffffffffffffffffffffffffffffffffffff161461052d576040517f08c379a000000000000000000000000000000000000000000000000000000000815260040161052490610ece565b60405180910390fd5b6002600060159054906101000a900460ff16600281111561055157610550610d42565b5b81600281111561056457610563610d42565b5b146105a4576040517f08c379a000000000000000000000000000000000000000000000000000000000815260040161059b90610f3a565b60405180910390fd5b6000806000905060005b6001805490508160ff16101561064f578160ff1660018260ff16815481106105d9576105d8610fb2565b5b906000526020600020906002020160010160019054906101000a900460ff1660ff161061063c5760018160ff168154811061061757610616610fb2565b5b906000526020600020906002020160010160019054906101000a900460ff1691508092505b808061064790610f89565b9150506105ae565b5060018260ff168154811061066757610666610fb2565b5b90600052602060002090600202016000018181805461068590611010565b80601f01602080910402602001604051908101604052809291908181526020018280546106b190611010565b80156106fe5780601f106106d3576101008083540402835291602001916106fe565b820191906000526020600020905b8154815290600101906020018083116106e157829003601f168201915b50505050509150945094505050509091565b60008054906101000a900473ffffffffffffffffffffffffffffffffffffffff1681565b600060159054906101000a900460ff1681565b6001600060159054906101000a900460ff16600281111561076b5761076a610d42565b5b81600281111561077e5761077d610d42565b5b146107be576040517f08c379a00000000000000000000000000000000000000000000000000000000081526004016107b590610f3a565b60405180910390fd5b60001515600260003373ffffffffffffffffffffffffffffffffffffffff1673ffffffffffffffffffffffffffffffffffffffff16815260200190815260200160002060010160009054906101000a900460ff16151514610854576040517f08c379a000000000000000000000000000000000000000000000000000000000815260040161084b9061108d565b60405180910390fd5b604051806040016040528084815260200160011515815250600260003373ffffffffffffffffffffffffffffffffffffffff1673ffffffffffffffffffffffffffffffffffffffff16815260200190815260200160002060008201518160000190805190602001906108c792919061094e565b5060208201518160010160006101000a81548160ff02191690831515021790555090505060018260ff168154811061090257610901610fb2565b5b9060005260206000209060020201600101600181819054906101000a900460ff168092919061093090610f89565b91906101000a81548160ff021916908360ff16021790555050505050565b82805461095a90611010565b90600052602060002090601f01602090048101928261097c57600085556109c3565b82601f1061099557805160ff19168380011785556109c3565b828001600101855582156109c3579182015b828111156109c25782518255916020019190600101906109a7565b5b5090506109d091906109d4565b5090565b5b808211156109ed5760008160009055506001016109d5565b5090565b6000604051905090565b600080fd5b600080fd5b600080fd5b600080fd5b6000601f19601f8301169050919050565b7f4e487b7100000000000000000000000000000000000000000000000000000000600052604160045260246000fd5b610a5882610a0f565b810181811067ffffffffffffffff82111715610a7757610a76610a20565b5b80604052505050565b6000610a8a6109f1565b9050610a968282610a4f565b919050565b600067ffffffffffffffff821115610ab657610ab5610a20565b5b610abf82610a0f565b9050602081019050919050565b82818337600083830152505050565b6000610aee610ae984610a9b565b610a80565b905082815260208101848484011115610b0a57610b09610a0a565b5b610b15848285610acc565b509392505050565b600082601f830112610b3257610b31610a05565b5b8135610b42848260208601610adb565b91505092915050565b600060208284031215610b6157610b606109fb565b5b600082013567ffffffffffffffff811115610b7f57610b7e610a00565b5b610b8b84828501610b1d565b91505092915050565b600060ff82169050919050565b610baa81610b94565b82525050565b6000602082019050610bc56000830184610ba1565b92915050565b6000819050919050565b610bde81610bcb565b8114610be957600080fd5b50565b600081359050610bfb81610bd5565b92915050565b600060208284031215610c1757610c166109fb565b5b6000610c2584828501610bec565b91505092915050565b600081519050919050565b600082825260208201905092915050565b60005b83811015610c68578082015181840152602081019050610c4d565b83811115610c77576000848401525b50505050565b6000610c8882610c2e565b610c928185610c39565b9350610ca2818560208601610c4a565b610cab81610a0f565b840191505092915050565b60006040820190508181036000830152610cd08185610c7d565b9050610cdf6020830184610ba1565b9392505050565b600073ffffffffffffffffffffffffffffffffffffffff82169050919050565b6000610d1182610ce6565b9050919050565b610d2181610d06565b82525050565b6000602082019050610d3c6000830184610d18565b92915050565b7f4e487b7100000000000000000000000000000000000000000000000000000000600052602160045260246000fd5b60038110610d8257610d81610d42565b5b50565b6000819050610d9382610d71565b919050565b6000610da382610d85565b9050919050565b610db381610d98565b82525050565b6000602082019050610dce6000830184610daa565b92915050565b610ddd81610b94565b8114610de857600080fd5b50565b600081359050610dfa81610dd4565b92915050565b60008060408385031215610e1757610e166109fb565b5b600083013567ffffffffffffffff811115610e3557610e34610a00565b5b610e4185828601610b1d565b9250506020610e5285828601610deb565b9150509250929050565b7f6f6e6c79206f776e65722063616e206578656375746520746869732066756e6360008201527f74696f6e00000000000000000000000000000000000000000000000000000000602082015250565b6000610eb8602483610c39565b9150610ec382610e5c565b604082019050919050565b60006020820190508181036000830152610ee781610eab565b9050919050565b7f66616c736520656c6374696f6e20737465702000000000000000000000000000600082015250565b6000610f24601383610c39565b9150610f2f82610eee565b602082019050919050565b60006020820190508181036000830152610f5381610f17565b9050919050565b7f4e487b7100000000000000000000000000000000000000000000000000000000600052601160045260246000fd5b6000610f9482610b94565b915060ff8203610fa757610fa6610f5a565b5b600182019050919050565b7f4e487b7100000000000000000000000000000000000000000000000000000000600052603260045260246000fd5b7f4e487b7100000000000000000000000000000000000000000000000000000000600052602260045260246000fd5b6000600282049050600182168061102857607f821691505b60208210810361103b5761103a610fe1565b5b50919050565b7f796f752063616e206f6e6c7920766f7465206f6e652074696d65000000000000600082015250565b6000611077601a83610c39565b915061108282611041565b602082019050919050565b600060208201905081810360008301526110a68161106a565b905091905056fea26469706673582212201bb660aa148dd0681aba2ffc1b3cba55083659ceda375c94f14a4ec7314cd27464736f6c634300080d0033",
  "immutableReferences": {},
  "source": "// SPDX-License-Identifier: MIT\r\npragma solidity >=0.4.22 <0.9.0;\r\n\r\ncontract election {                 // this code is to implement a school election \r\n    \r\n    address public ownerAdr ;\r\n    uint8 public counter ;\r\n\r\n    enum electionSteps {\r\n        register ,                   // register the candidates\r\n        vote ,                       // start votting\r\n        end                          // get the result of election\r\n    }\r\n\r\n    electionSteps public step ;\r\n\r\n    constructor(){\r\n        ownerAdr = msg.sender ;\r\n        step = electionSteps.register ;\r\n    }\r\n\r\n    struct candidate  {\r\n        string name ;\r\n        uint8 id ;\r\n        uint8 votesCount ;\r\n    }\r\n\r\n    struct voter {\r\n        string name ;\r\n        bool voted ;\r\n    }\r\n\r\n    candidate [] candidates ;\r\n    mapping (address => voter) voters ;\r\n\r\n    modifier _onlyOwner() {\r\n        require(msg.sender == ownerAdr , \"only owner can execute this function\");\r\n        _;\r\n    }\r\n\r\n    modifier _step(electionSteps __step ){\r\n        require( __step == step ,\"false elction step \");\r\n        _;\r\n    }\r\n\r\n    function ChangeStep(uint _num)public _onlyOwner {\r\n        if (_num == 0){\r\n            step = electionSteps.register ;\r\n        } else if (_num == 1){\r\n            step = electionSteps.vote ;\r\n        } else if (_num == 2){\r\n            step = electionSteps.end ;\r\n        }else{\r\n\r\n        }\r\n\r\n    }\r\n\r\n    function RegisterCandidate(string memory _name)public _onlyOwner _step( electionSteps.register )  {\r\n        candidates.push(candidate(_name , counter , 0 ));\r\n        counter++;\r\n    }\r\n\r\n    function Vote(string memory _name , uint8 _candidateId) public _step(electionSteps.vote)  {\r\n        require(voters[msg.sender].voted == false,\"you can only vote one time\");\r\n        \r\n        voters[msg.sender] = voter(_name,true);\r\n        candidates[_candidateId].votesCount++;\r\n\r\n    }\r\n\r\n    function GetWinner() _onlyOwner _step(electionSteps.end) public view returns(string memory , uint8){\r\n        // I know this function has this bug ( if 2 candidates have the same votes count, it will overwrite first candidate with seccond candidate)\r\n        uint8 winnerIndex ;\r\n        uint8 maxVote = 0 ;\r\n        for(uint8 i = 0 ; i < candidates.length ; i++){\r\n            if( candidates[i].votesCount >= maxVote){   \r\n                maxVote = candidates[i].votesCount ;\r\n                winnerIndex = i ;\r\n            }\r\n        }\r\n        return(candidates[winnerIndex].name , maxVote);                //( winner name , winner votes )\r\n    }\r\n}\r\n\r\n    // the function bellow is the correct version of function GetWinner() :\r\n    //\r\n    // function GetWinner() _onlyOwner _step(electionSteps.end) public  returns( candidate [] memory  ,uint8 , uint ){\r\n    //     candidate [] memory winnerCandidates ;              // used in last function\r\n    //     // uint8 winner_i = 0;\r\n    //     uint8 maxVote = 0 ;\r\n    //     for(uint8 i = 0 ; i < candidates.length ; i++){\r\n    //         if( candidates[i].votesCount > maxVote){             // I know this line has some bug\r\n    //             maxVote = candidates[i].votesCount ;\r\n    //            // winner_i = i ;\r\n    //           // winnerCandidates =  candidate(candidates[i].name,candidates[i].id,candidates[i].votesCount)  ;\r\n    //         //winnerCandidates = [candidate(candidates[i].name,candidates[i].id,candidates[i].votesCount)];\r\n    //         //winnerCandidates = [];\r\n    //                 candidate [] memory winnerCandidates ;              // used in last function\r\n\r\n    //         }else if ( candidates[i].votesCount == maxVote){\r\n    //             candidates.push(candidates[i]);\r\n    //         }\r\n    //     }\r\n    //     return( winnerCandidates , maxVote , winnerCandidates.length);                //( winner name , winner votes )\r\n    // }\r\n\r\n",
  "sourcePath": "C:\\Users\\HP\\Documents\\DApp\\Ballot\\contracts\\votting.sol",
  "compiler": {
    "name": "solc",
    "version": "0.8.13+commit.abaa5c0e.Emscripten.clang"
  },
  "schemaVersion": "3.4.6",
  "updatedAt": "2022-08-17T10:06:10.729Z",
  "networkType": "ethereum",
  "devdoc": {
    "kind": "dev",
    "methods": {},
    "version": 1
  },
  "userdoc": {
    "kind": "user",
    "methods": {},
    "version": 1
  }
}